{
  "contractName": "NFT_Asset_Response",
  "abi": [
    {
      "inputs": [],
      "stateMutability": "nonpayable",
      "type": "constructor"
    },
    {
      "anonymous": false,
      "inputs": [
        {
          "indexed": false,
          "internalType": "string",
          "name": "sender_address",
          "type": "string"
        },
        {
          "indexed": false,
          "internalType": "string",
          "name": "asset_info_on_ipfs",
          "type": "string"
        },
        {
          "indexed": false,
          "internalType": "string",
          "name": "image_original_on_ipfs",
          "type": "string"
        },
        {
          "indexed": false,
          "internalType": "string",
          "name": "animation_original_on_ipfs",
          "type": "string"
        }
      ],
      "name": "nftAssetData",
      "type": "event"
    },
    {
      "inputs": [
        {
          "internalType": "address",
          "name": "_allowedAddress",
          "type": "address"
        }
      ],
      "name": "addAllowed",
      "outputs": [],
      "stateMutability": "nonpayable",
      "type": "function"
    },
    {
      "inputs": [
        {
          "internalType": "address",
          "name": "_uA",
          "type": "address"
        }
      ],
      "name": "isAllowed",
      "outputs": [
        {
          "internalType": "bool",
          "name": "",
          "type": "bool"
        }
      ],
      "stateMutability": "view",
      "type": "function",
      "constant": true
    },
    {
      "inputs": [
        {
          "internalType": "string",
          "name": "_sender_address",
          "type": "string"
        },
        {
          "internalType": "string",
          "name": "_asset_info_on_ipfs",
          "type": "string"
        },
        {
          "internalType": "string",
          "name": "_image_original_on_ipfs",
          "type": "string"
        },
        {
          "internalType": "string",
          "name": "_animation_original_on_ipfs",
          "type": "string"
        }
      ],
      "name": "emitNftAssetData",
      "outputs": [],
      "stateMutability": "nonpayable",
      "type": "function"
    }
  ],
  "bytecode": "0x608060405234801561001057600080fd5b50336000806101000a81548173ffffffffffffffffffffffffffffffffffffffff021916908373ffffffffffffffffffffffffffffffffffffffff1602179055506106da806100606000396000f3fe608060405234801561001057600080fd5b50600436106100415760003560e01c806324939fb014610046578063babcc53914610062578063cb8523c614610092575b600080fd5b610060600480360381019061005b919061035b565b6100ae565b005b61007c600480360381019061007791906104a2565b610145565b60405161008991906104ea565b60405180910390f35b6100ac60048036038101906100a791906104a2565b6101a1565b005b6100b733610145565b6100f6576040517f08c379a00000000000000000000000000000000000000000000000000000000081526004016100ed90610562565b60405180910390fd5b7fcbc0f5927eb2c5d29c82cf258352ced2307df9a8cafaeb7d685210a7a236639a88888888888888886040516101339897969594939291906105cf565b60405180910390a15050505050505050565b600080600160008473ffffffffffffffffffffffffffffffffffffffff1673ffffffffffffffffffffffffffffffffffffffff168152602001908152602001600020541115610197576001905061019c565b600090505b919050565b60008054906101000a900473ffffffffffffffffffffffffffffffffffffffff1673ffffffffffffffffffffffffffffffffffffffff163373ffffffffffffffffffffffffffffffffffffffff161461022f576040517f08c379a000000000000000000000000000000000000000000000000000000000815260040161022690610684565b60405180910390fd5b61023881610145565b6102e957600280549050600160008373ffffffffffffffffffffffffffffffffffffffff1673ffffffffffffffffffffffffffffffffffffffff168152602001908152602001600020819055506002819080600181540180825580915050600190039060005260206000200160009091909190916101000a81548173ffffffffffffffffffffffffffffffffffffffff021916908373ffffffffffffffffffffffffffffffffffffffff1602179055505b50565b600080fd5b600080fd5b600080fd5b600080fd5b600080fd5b60008083601f84011261031b5761031a6102f6565b5b8235905067ffffffffffffffff811115610338576103376102fb565b5b60208301915083600182028301111561035457610353610300565b5b9250929050565b6000806000806000806000806080898b03121561037b5761037a6102ec565b5b600089013567ffffffffffffffff811115610399576103986102f1565b5b6103a58b828c01610305565b9850985050602089013567ffffffffffffffff8111156103c8576103c76102f1565b5b6103d48b828c01610305565b9650965050604089013567ffffffffffffffff8111156103f7576103f66102f1565b5b6104038b828c01610305565b9450945050606089013567ffffffffffffffff811115610426576104256102f1565b5b6104328b828c01610305565b92509250509295985092959890939650565b600073ffffffffffffffffffffffffffffffffffffffff82169050919050565b600061046f82610444565b9050919050565b61047f81610464565b811461048a57600080fd5b50565b60008135905061049c81610476565b92915050565b6000602082840312156104b8576104b76102ec565b5b60006104c68482850161048d565b91505092915050565b60008115159050919050565b6104e4816104cf565b82525050565b60006020820190506104ff60008301846104db565b92915050565b600082825260208201905092915050565b7f77726f6e6720616464726573732c2063616e7420656d69740000000000000000600082015250565b600061054c601883610505565b915061055782610516565b602082019050919050565b6000602082019050818103600083015261057b8161053f565b9050919050565b82818337600083830152505050565b6000601f19601f8301169050919050565b60006105ae8385610505565b93506105bb838584610582565b6105c483610591565b840190509392505050565b600060808201905081810360008301526105ea818a8c6105a2565b905081810360208301526105ff81888a6105a2565b905081810360408301526106148186886105a2565b905081810360608301526106298184866105a2565b90509998505050505050505050565b7f77726f6e67206f776e65722c2063616e74206164640000000000000000000000600082015250565b600061066e601583610505565b915061067982610638565b602082019050919050565b6000602082019050818103600083015261069d81610661565b905091905056fea264697066735822122039895d4247ca2b1543e320e032705793a2a018629a23bcde54243bb8c3d810e864736f6c634300080a0033",
  "immutableReferences": {},
  "source": "// SPDX-License-Identifier: MIT\r\npragma solidity >= 0.5.16 < 0.9.0;\r\n  \r\ncontract NFT_Asset_Response {\r\n\r\n    address admin;\r\n    mapping (address => uint) index;\r\n    address[] allowedAddresses;\r\n    \r\n\r\n    constructor()  {\r\n        admin = msg.sender;\r\n    }\r\n\r\n    function addAllowed(address _allowedAddress) external {\r\n        if (msg.sender != admin) {\r\n            revert('wrong owner, cant add');\r\n        }\r\n        \r\n        if (!isAllowed(_allowedAddress)) {\r\n            index[_allowedAddress] = allowedAddresses.length;\r\n            allowedAddresses.push(_allowedAddress);\r\n        }\r\n\r\n    }\r\n    \r\n    function isAllowed(address _uA) public view returns (bool) {\r\n        \r\n        if (index[_uA] > 0) {\r\n            return true;\r\n        }\r\n        return false;\r\n    }\r\n\r\n    event nftAssetData(\r\n        string sender_address,\r\n        string asset_info_on_ipfs,\r\n        string image_original_on_ipfs,\r\n        string animation_original_on_ipfs  \r\n    );\r\n\r\n    function emitNftAssetData(\r\n        string calldata _sender_address,\r\n        string calldata _asset_info_on_ipfs,\r\n        string calldata _image_original_on_ipfs,\r\n        string calldata _animation_original_on_ipfs      \r\n        ) external {\r\n\r\n        if (!isAllowed(msg.sender)) {\r\n        revert('wrong address, cant emit');\r\n        }\r\n\r\n        emit nftAssetData(\r\n            _sender_address, \r\n            _asset_info_on_ipfs,\r\n            _image_original_on_ipfs,\r\n            _animation_original_on_ipfs\r\n  \r\n            );\r\n\r\n\r\n\r\n    }\r\n\r\n    \r\n\r\n\r\n}",
  "sourcePath": "C:\\Users\\Salah\\projects\\web3_opensea\\contracts\\NFT_Asset_Response.sol",
  "compiler": {
    "name": "solc",
    "version": "0.8.10+commit.fc410830.Emscripten.clang"
  },
  "schemaVersion": "3.4.3",
  "updatedAt": "2021-12-12T18:10:20.327Z",
  "networkType": "ethereum",
  "devdoc": {
    "kind": "dev",
    "methods": {},
    "version": 1
  },
  "userdoc": {
    "kind": "user",
    "methods": {},
    "version": 1
  }
}